{"abi":[{"type":"constructor","inputs":[],"stateMutability":"nonpayable"},{"type":"function","name":"MAX_SUPPLY","inputs":[],"outputs":[{"name":"","type":"uint256","internalType":"uint256"}],"stateMutability":"view"},{"type":"function","name":"allowance","inputs":[{"name":"owner","type":"address","internalType":"address"},{"name":"spender","type":"address","internalType":"address"}],"outputs":[{"name":"","type":"uint256","internalType":"uint256"}],"stateMutability":"view"},{"type":"function","name":"approve","inputs":[{"name":"spender","type":"address","internalType":"address"},{"name":"value","type":"uint256","internalType":"uint256"}],"outputs":[{"name":"","type":"bool","internalType":"bool"}],"stateMutability":"nonpayable"},{"type":"function","name":"balanceOf","inputs":[{"name":"account","type":"address","internalType":"address"}],"outputs":[{"name":"","type":"uint256","internalType":"uint256"}],"stateMutability":"view"},{"type":"function","name":"decimals","inputs":[],"outputs":[{"name":"","type":"uint8","internalType":"uint8"}],"stateMutability":"view"},{"type":"function","name":"mint","inputs":[{"name":"to","type":"address","internalType":"address"},{"name":"amount","type":"uint256","internalType":"uint256"}],"outputs":[],"stateMutability":"nonpayable"},{"type":"function","name":"name","inputs":[],"outputs":[{"name":"","type":"string","internalType":"string"}],"stateMutability":"view"},{"type":"function","name":"owner","inputs":[],"outputs":[{"name":"","type":"address","internalType":"address"}],"stateMutability":"view"},{"type":"function","name":"renounceOwnership","inputs":[],"outputs":[],"stateMutability":"nonpayable"},{"type":"function","name":"symbol","inputs":[],"outputs":[{"name":"","type":"string","internalType":"string"}],"stateMutability":"view"},{"type":"function","name":"totalMinted","inputs":[],"outputs":[{"name":"","type":"uint256","internalType":"uint256"}],"stateMutability":"view"},{"type":"function","name":"totalSupply","inputs":[],"outputs":[{"name":"","type":"uint256","internalType":"uint256"}],"stateMutability":"view"},{"type":"function","name":"transfer","inputs":[{"name":"to","type":"address","internalType":"address"},{"name":"value","type":"uint256","internalType":"uint256"}],"outputs":[{"name":"","type":"bool","internalType":"bool"}],"stateMutability":"nonpayable"},{"type":"function","name":"transferFrom","inputs":[{"name":"from","type":"address","internalType":"address"},{"name":"to","type":"address","internalType":"address"},{"name":"value","type":"uint256","internalType":"uint256"}],"outputs":[{"name":"","type":"bool","internalType":"bool"}],"stateMutability":"nonpayable"},{"type":"function","name":"transferOwnership","inputs":[{"name":"newOwner","type":"address","internalType":"address"}],"outputs":[],"stateMutability":"nonpayable"},{"type":"event","name":"Approval","inputs":[{"name":"owner","type":"address","indexed":true,"internalType":"address"},{"name":"spender","type":"address","indexed":true,"internalType":"address"},{"name":"value","type":"uint256","indexed":false,"internalType":"uint256"}],"anonymous":false},{"type":"event","name":"OwnershipTransferred","inputs":[{"name":"previousOwner","type":"address","indexed":true,"internalType":"address"},{"name":"newOwner","type":"address","indexed":true,"internalType":"address"}],"anonymous":false},{"type":"event","name":"Transfer","inputs":[{"name":"from","type":"address","indexed":true,"internalType":"address"},{"name":"to","type":"address","indexed":true,"internalType":"address"},{"name":"value","type":"uint256","indexed":false,"internalType":"uint256"}],"anonymous":false},{"type":"error","name":"ERC20InsufficientAllowance","inputs":[{"name":"spender","type":"address","internalType":"address"},{"name":"allowance","type":"uint256","internalType":"uint256"},{"name":"needed","type":"uint256","internalType":"uint256"}]},{"type":"error","name":"ERC20InsufficientBalance","inputs":[{"name":"sender","type":"address","internalType":"address"},{"name":"balance","type":"uint256","internalType":"uint256"},{"name":"needed","type":"uint256","internalType":"uint256"}]},{"type":"error","name":"ERC20InvalidApprover","inputs":[{"name":"approver","type":"address","internalType":"address"}]},{"type":"error","name":"ERC20InvalidReceiver","inputs":[{"name":"receiver","type":"address","internalType":"address"}]},{"type":"error","name":"ERC20InvalidSender","inputs":[{"name":"sender","type":"address","internalType":"address"}]},{"type":"error","name":"ERC20InvalidSpender","inputs":[{"name":"spender","type":"address","internalType":"address"}]},{"type":"error","name":"OwnableInvalidOwner","inputs":[{"name":"owner","type":"address","internalType":"address"}]},{"type":"error","name":"OwnableUnauthorizedAccount","inputs":[{"name":"account","type":"address","internalType":"address"}]}],"bytecode":{"object":"0x608060405234801562000010575f80fd5b50336040518060400160405280600c81526020016b21b932b0ba37b92a37b5b2b760a11b8152506040518060400160405280600381526020016210d49560ea1b8152508160039081620000649190620001a7565b506004620000738282620001a7565b5050506001600160a01b038116620000a457604051631e4fbdf760e01b81525f600482015260240160405180910390fd5b620000af81620000b6565b506200026f565b600580546001600160a01b038381166001600160a01b0319831681179093556040519116919082907f8be0079c531659141344cd1fd0a4f28419497f9722a3daafe3b4186f6b6457e0905f90a35050565b634e487b7160e01b5f52604160045260245ffd5b600181811c908216806200013057607f821691505b6020821081036200014f57634e487b7160e01b5f52602260045260245ffd5b50919050565b601f821115620001a2575f81815260208120601f850160051c810160208610156200017d5750805b601f850160051c820191505b818110156200019e5782815560010162000189565b5050505b505050565b81516001600160401b03811115620001c357620001c362000107565b620001db81620001d484546200011b565b8462000155565b602080601f83116001811462000211575f8415620001f95750858301515b5f19600386901b1c1916600185901b1785556200019e565b5f85815260208120601f198616915b82811015620002415788860151825594840194600190910190840162000220565b50858210156200025f57878501515f19600388901b60f8161c191681555b5050505050600190811b01905550565b6109a9806200027d5f395ff3fe608060405234801561000f575f80fd5b50600436106100f0575f3560e01c806370a0823111610093578063a2309ff811610063578063a2309ff8146101e2578063a9059cbb146101ea578063dd62ed3e146101fd578063f2fde38b14610235575f80fd5b806370a082311461018f578063715018a6146101b75780638da5cb5b146101bf57806395d89b41146101da575f80fd5b806323b872dd116100ce57806323b872dd14610147578063313ce5671461015a57806332cb6b0c1461016957806340c10f191461017a575f80fd5b806306fdde03146100f4578063095ea7b31461011257806318160ddd14610135575b5f80fd5b6100fc610248565b6040516101099190610804565b60405180910390f35b61012561012036600461086a565b6102d8565b6040519015158152602001610109565b6002545b604051908152602001610109565b610125610155366004610892565b6102f1565b60405160128152602001610109565b61013969d3c21bcecceda100000081565b61018d61018836600461086a565b610314565b005b61013961019d3660046108cb565b6001600160a01b03165f9081526020819052604090205490565b61018d610403565b6005546040516001600160a01b039091168152602001610109565b6100fc610416565b600654610139565b6101256101f836600461086a565b610425565b61013961020b3660046108eb565b6001600160a01b039182165f90815260016020908152604080832093909416825291909152205490565b61018d6102433660046108cb565b610432565b6060600380546102579061091c565b80601f01602080910402602001604051908101604052809291908181526020018280546102839061091c565b80156102ce5780601f106102a5576101008083540402835291602001916102ce565b820191905f5260205f20905b8154815290600101906020018083116102b157829003601f168201915b5050505050905090565b5f336102e581858561046f565b60019150505b92915050565b5f336102fe858285610481565b6103098585856104fd565b506001949350505050565b61031c61055a565b6001600160a01b0382166103775760405162461bcd60e51b815260206004820152601b60248201527f43616e6e6f74206d696e7420746f207a65726f2061646472657373000000000060448201526064015b60405180910390fd5b69d3c21bcecceda1000000816006546103909190610954565b11156103de5760405162461bcd60e51b815260206004820152601760248201527f576f756c6420657863656564206d617820737570706c79000000000000000000604482015260640161036e565b8060065f8282546103ef9190610954565b909155506103ff90508282610587565b5050565b61040b61055a565b6104145f6105bb565b565b6060600480546102579061091c565b5f336102e58185856104fd565b61043a61055a565b6001600160a01b03811661046357604051631e4fbdf760e01b81525f600482015260240161036e565b61046c816105bb565b50565b61047c838383600161060c565b505050565b6001600160a01b038381165f908152600160209081526040808320938616835292905220545f198110156104f757818110156104e957604051637dc7a0d960e11b81526001600160a01b0384166004820152602481018290526044810183905260640161036e565b6104f784848484035f61060c565b50505050565b6001600160a01b03831661052657604051634b637e8f60e11b81525f600482015260240161036e565b6001600160a01b03821661054f5760405163ec442f0560e01b81525f600482015260240161036e565b61047c8383836106de565b6005546001600160a01b031633146104145760405163118cdaa760e01b815233600482015260240161036e565b6001600160a01b0382166105b05760405163ec442f0560e01b81525f600482015260240161036e565b6103ff5f83836106de565b600580546001600160a01b038381166001600160a01b0319831681179093556040519116919082907f8be0079c531659141344cd1fd0a4f28419497f9722a3daafe3b4186f6b6457e0905f90a35050565b6001600160a01b0384166106355760405163e602df0560e01b81525f600482015260240161036e565b6001600160a01b03831661065e57604051634a1406b160e11b81525f600482015260240161036e565b6001600160a01b038085165f90815260016020908152604080832093871683529290522082905580156104f757826001600160a01b0316846001600160a01b03167f8c5be1e5ebec7d5bd14f71427d1e84f3dd0314c0f7b2291e5b200ac8c7c3b925846040516106d091815260200190565b60405180910390a350505050565b6001600160a01b038316610708578060025f8282546106fd9190610954565b909155506107789050565b6001600160a01b0383165f908152602081905260409020548181101561075a5760405163391434e360e21b81526001600160a01b0385166004820152602481018290526044810183905260640161036e565b6001600160a01b0384165f9081526020819052604090209082900390555b6001600160a01b038216610794576002805482900390556107b2565b6001600160a01b0382165f9081526020819052604090208054820190555b816001600160a01b0316836001600160a01b03167fddf252ad1be2c89b69c2b068fc378daa952ba7f163c4a11628f55a4df523b3ef836040516107f791815260200190565b60405180910390a3505050565b5f6020808352835180828501525f5b8181101561082f57858101830151858201604001528201610813565b505f604082860101526040601f19601f8301168501019250505092915050565b80356001600160a01b0381168114610865575f80fd5b919050565b5f806040838503121561087b575f80fd5b6108848361084f565b946020939093013593505050565b5f805f606084860312156108a4575f80fd5b6108ad8461084f565b92506108bb6020850161084f565b9150604084013590509250925092565b5f602082840312156108db575f80fd5b6108e48261084f565b9392505050565b5f80604083850312156108fc575f80fd5b6109058361084f565b91506109136020840161084f565b90509250929050565b600181811c9082168061093057607f821691505b60208210810361094e57634e487b7160e01b5f52602260045260245ffd5b50919050565b808201808211156102eb57634e487b7160e01b5f52601160045260245ffdfea26469706673582212205ac5ad7dadc9210f4ebd5fedc11612fa116ddd0ad40e6012346a27d3ec676d3564736f6c63430008140033","linkReferences":{}},"methodIdentifiers":{"MAX_SUPPLY()":"32cb6b0c","allowance(address,address)":"dd62ed3e","approve(address,uint256)":"095ea7b3","balanceOf(address)":"70a08231","decimals()":"313ce567","mint(address,uint256)":"40c10f19","name()":"06fdde03","owner()":"8da5cb5b","renounceOwnership()":"715018a6","symbol()":"95d89b41","totalMinted()":"a2309ff8","totalSupply()":"18160ddd","transfer(address,uint256)":"a9059cbb","transferFrom(address,address,uint256)":"23b872dd","transferOwnership(address)":"f2fde38b"},"id":37}