{"abi":[{"type":"constructor","inputs":[],"stateMutability":"nonpayable"},{"type":"function","name":"CREATOR_REWARD","inputs":[],"outputs":[{"name":"","type":"uint256","internalType":"uint256"}],"stateMutability":"view"},{"type":"function","name":"approve","inputs":[{"name":"to","type":"address","internalType":"address"},{"name":"tokenId","type":"uint256","internalType":"uint256"}],"outputs":[],"stateMutability":"nonpayable"},{"type":"function","name":"balanceOf","inputs":[{"name":"owner","type":"address","internalType":"address"}],"outputs":[{"name":"","type":"uint256","internalType":"uint256"}],"stateMutability":"view"},{"type":"function","name":"creatorToken","inputs":[],"outputs":[{"name":"","type":"address","internalType":"contract CreatorToken"}],"stateMutability":"view"},{"type":"function","name":"getApproved","inputs":[{"name":"tokenId","type":"uint256","internalType":"uint256"}],"outputs":[{"name":"","type":"address","internalType":"address"}],"stateMutability":"view"},{"type":"function","name":"getCreator","inputs":[{"name":"tokenId","type":"uint256","internalType":"uint256"}],"outputs":[{"name":"","type":"address","internalType":"address"}],"stateMutability":"view"},{"type":"function","name":"getCreatorTokenAddress","inputs":[],"outputs":[{"name":"","type":"address","internalType":"address"}],"stateMutability":"view"},{"type":"function","name":"getCreatorTokenBalance","inputs":[{"name":"account","type":"address","internalType":"address"}],"outputs":[{"name":"","type":"uint256","internalType":"uint256"}],"stateMutability":"view"},{"type":"function","name":"getNextTokenId","inputs":[],"outputs":[{"name":"","type":"uint256","internalType":"uint256"}],"stateMutability":"view"},{"type":"function","name":"getTotalCreatorTokens","inputs":[],"outputs":[{"name":"","type":"uint256","internalType":"uint256"}],"stateMutability":"view"},{"type":"function","name":"isApprovedForAll","inputs":[{"name":"owner","type":"address","internalType":"address"},{"name":"operator","type":"address","internalType":"address"}],"outputs":[{"name":"","type":"bool","internalType":"bool"}],"stateMutability":"view"},{"type":"function","name":"mintNFT","inputs":[{"name":"to","type":"address","internalType":"address"},{"name":"uri","type":"string","internalType":"string"}],"outputs":[{"name":"","type":"uint256","internalType":"uint256"}],"stateMutability":"nonpayable"},{"type":"function","name":"name","inputs":[],"outputs":[{"name":"","type":"string","internalType":"string"}],"stateMutability":"view"},{"type":"function","name":"nftCreators","inputs":[{"name":"","type":"uint256","internalType":"uint256"}],"outputs":[{"name":"","type":"address","internalType":"address"}],"stateMutability":"view"},{"type":"function","name":"owner","inputs":[],"outputs":[{"name":"","type":"address","internalType":"address"}],"stateMutability":"view"},{"type":"function","name":"ownerOf","inputs":[{"name":"tokenId","type":"uint256","internalType":"uint256"}],"outputs":[{"name":"","type":"address","internalType":"address"}],"stateMutability":"view"},{"type":"function","name":"renounceOwnership","inputs":[],"outputs":[],"stateMutability":"nonpayable"},{"type":"function","name":"rewardCreator","inputs":[{"name":"to","type":"address","internalType":"address"},{"name":"amount","type":"uint256","internalType":"uint256"}],"outputs":[],"stateMutability":"nonpayable"},{"type":"function","name":"safeTransferFrom","inputs":[{"name":"from","type":"address","internalType":"address"},{"name":"to","type":"address","internalType":"address"},{"name":"tokenId","type":"uint256","internalType":"uint256"}],"outputs":[],"stateMutability":"nonpayable"},{"type":"function","name":"safeTransferFrom","inputs":[{"name":"from","type":"address","internalType":"address"},{"name":"to","type":"address","internalType":"address"},{"name":"tokenId","type":"uint256","internalType":"uint256"},{"name":"data","type":"bytes","internalType":"bytes"}],"outputs":[],"stateMutability":"nonpayable"},{"type":"function","name":"setApprovalForAll","inputs":[{"name":"operator","type":"address","internalType":"address"},{"name":"approved","type":"bool","internalType":"bool"}],"outputs":[],"stateMutability":"nonpayable"},{"type":"function","name":"supportsInterface","inputs":[{"name":"interfaceId","type":"bytes4","internalType":"bytes4"}],"outputs":[{"name":"","type":"bool","internalType":"bool"}],"stateMutability":"view"},{"type":"function","name":"symbol","inputs":[],"outputs":[{"name":"","type":"string","internalType":"string"}],"stateMutability":"view"},{"type":"function","name":"tokenURI","inputs":[{"name":"tokenId","type":"uint256","internalType":"uint256"}],"outputs":[{"name":"","type":"string","internalType":"string"}],"stateMutability":"view"},{"type":"function","name":"totalNFTsMinted","inputs":[],"outputs":[{"name":"","type":"uint256","internalType":"uint256"}],"stateMutability":"view"},{"type":"function","name":"transferFrom","inputs":[{"name":"from","type":"address","internalType":"address"},{"name":"to","type":"address","internalType":"address"},{"name":"tokenId","type":"uint256","internalType":"uint256"}],"outputs":[],"stateMutability":"nonpayable"},{"type":"function","name":"transferOwnership","inputs":[{"name":"newOwner","type":"address","internalType":"address"}],"outputs":[],"stateMutability":"nonpayable"},{"type":"event","name":"Approval","inputs":[{"name":"owner","type":"address","indexed":true,"internalType":"address"},{"name":"approved","type":"address","indexed":true,"internalType":"address"},{"name":"tokenId","type":"uint256","indexed":true,"internalType":"uint256"}],"anonymous":false},{"type":"event","name":"ApprovalForAll","inputs":[{"name":"owner","type":"address","indexed":true,"internalType":"address"},{"name":"operator","type":"address","indexed":true,"internalType":"address"},{"name":"approved","type":"bool","indexed":false,"internalType":"bool"}],"anonymous":false},{"type":"event","name":"CreatorRewarded","inputs":[{"name":"creator","type":"address","indexed":true,"internalType":"address"},{"name":"amount","type":"uint256","indexed":false,"internalType":"uint256"},{"name":"nftTokenId","type":"uint256","indexed":false,"internalType":"uint256"}],"anonymous":false},{"type":"event","name":"NFTMinted","inputs":[{"name":"tokenId","type":"uint256","indexed":true,"internalType":"uint256"},{"name":"creator","type":"address","indexed":true,"internalType":"address"},{"name":"minter","type":"address","indexed":true,"internalType":"address"},{"name":"tokenURI","type":"string","indexed":false,"internalType":"string"}],"anonymous":false},{"type":"event","name":"OwnershipTransferred","inputs":[{"name":"previousOwner","type":"address","indexed":true,"internalType":"address"},{"name":"newOwner","type":"address","indexed":true,"internalType":"address"}],"anonymous":false},{"type":"event","name":"Transfer","inputs":[{"name":"from","type":"address","indexed":true,"internalType":"address"},{"name":"to","type":"address","indexed":true,"internalType":"address"},{"name":"tokenId","type":"uint256","indexed":true,"internalType":"uint256"}],"anonymous":false},{"type":"error","name":"ERC721IncorrectOwner","inputs":[{"name":"sender","type":"address","internalType":"address"},{"name":"tokenId","type":"uint256","internalType":"uint256"},{"name":"owner","type":"address","internalType":"address"}]},{"type":"error","name":"ERC721InsufficientApproval","inputs":[{"name":"operator","type":"address","internalType":"address"},{"name":"tokenId","type":"uint256","internalType":"uint256"}]},{"type":"error","name":"ERC721InvalidApprover","inputs":[{"name":"approver","type":"address","internalType":"address"}]},{"type":"error","name":"ERC721InvalidOperator","inputs":[{"name":"operator","type":"address","internalType":"address"}]},{"type":"error","name":"ERC721InvalidOwner","inputs":[{"name":"owner","type":"address","internalType":"address"}]},{"type":"error","name":"ERC721InvalidReceiver","inputs":[{"name":"receiver","type":"address","internalType":"address"}]},{"type":"error","name":"ERC721InvalidSender","inputs":[{"name":"sender","type":"address","internalType":"address"}]},{"type":"error","name":"ERC721NonexistentToken","inputs":[{"name":"tokenId","type":"uint256","internalType":"uint256"}]},{"type":"error","name":"OwnableInvalidOwner","inputs":[{"name":"owner","type":"address","internalType":"address"}]},{"type":"error","name":"OwnableUnauthorizedAccount","inputs":[{"name":"account","type":"address","internalType":"address"}]}],"bytecode":{"object":"0x60a0604052600160075534801562000015575f80fd5b503360405180604001604052806006815260200165105c9d13919560d21b8152506040518060400160405280600381526020016210549560ea1b815250815f9081620000629190620001e8565b506001620000718282620001e8565b5050506001600160a01b038116620000a257604051631e4fbdf760e01b81525f600482015260240160405180910390fd5b620000ad81620000e9565b50604051620000bc906200013a565b604051809103905ff080158015620000d6573d5f803e3d5ffd5b506001600160a01b0316608052620002b0565b600680546001600160a01b038381166001600160a01b0319831681179093556040519116919082907f8be0079c531659141344cd1fd0a4f28419497f9722a3daafe3b4186f6b6457e0905f90a35050565b610c268062001a1783390190565b634e487b7160e01b5f52604160045260245ffd5b600181811c908216806200017157607f821691505b6020821081036200019057634e487b7160e01b5f52602260045260245ffd5b50919050565b601f821115620001e3575f81815260208120601f850160051c81016020861015620001be5750805b601f850160051c820191505b81811015620001df57828155600101620001ca565b5050505b505050565b81516001600160401b0381111562000204576200020462000148565b6200021c816200021584546200015c565b8462000196565b602080601f83116001811462000252575f84156200023a5750858301515b5f19600386901b1c1916600185901b178555620001df565b5f85815260208120601f198616915b82811015620002825788860151825594840194600190910190840162000261565b5085821015620002a057878501515f19600388901b60f8161c191681555b5050505050600190811b01905550565b60805161172b620002ec5f395f8181610298015281816102d40152818161054e0152818161066b0152818161073e0152610f2d015261172b5ff3fe608060405234801561000f575f80fd5b50600436106101a1575f3560e01c80636039fe62116100f3578063b88d4fde11610093578063d48e638a1161006e578063d48e638a14610399578063e985e9c5146103ac578063eacabe14146103bf578063f2fde38b146103d2575f80fd5b8063b88d4fde1461036b578063c87b56dd1461037e578063caa0f92a14610391575f80fd5b8063715018a6116100ce578063715018a6146103375780638da5cb5b1461033f57806395d89b4114610350578063a22cb46514610358575f80fd5b80636039fe62146102fe5780636352211e1461031157806370a0823114610324575f80fd5b806323b872dd1161015e57806341e74b481161013957806341e74b481461029657806342842e0e146102bc578063483a5f14146102cf5780634eb7e95f146102f6575f80fd5b806323b872dd1461025d5780633b99eddc1461027057806340c900b614610286575f80fd5b806301ffc9a7146101a557806306fdde03146101cd5780630773fdb9146101e2578063081812fc146101f7578063095ea7b3146102225780630fe00cbc14610235575b5f80fd5b6101b86101b3366004611226565b6103e5565b60405190151581526020015b60405180910390f35b6101d5610436565b6040516101c4919061128b565b6101f56101f03660046112b8565b6104c5565b005b61020a6102053660046112e0565b6105a9565b6040516001600160a01b0390911681526020016101c4565b6101f56102303660046112b8565b6105d0565b61020a6102433660046112e0565b60086020525f90815260409020546001600160a01b031681565b6101f561026b3660046112f7565b6105df565b610278610668565b6040519081526020016101c4565b61027868056bc75e2d6310000081565b7f000000000000000000000000000000000000000000000000000000000000000061020a565b6101f56102ca3660046112f7565b6106ee565b61020a7f000000000000000000000000000000000000000000000000000000000000000081565b61027861070d565b61027861030c366004611330565b61071d565b61020a61031f3660046112e0565b6107a9565b610278610332366004611330565b6107b3565b6101f56107f8565b6006546001600160a01b031661020a565b6101d561080b565b6101f5610366366004611349565b61081a565b6101f5610379366004611409565b610825565b6101d561038c3660046112e0565b61083d565b600754610278565b61020a6103a73660046112e0565b610935565b6101b86103ba366004611480565b6109aa565b6102786103cd3660046114b1565b6109d7565b6101f56103e0366004611330565b610b38565b5f6001600160e01b031982166380ac58cd60e01b148061041557506001600160e01b03198216635b5e139f60e01b145b8061043057506301ffc9a760e01b6001600160e01b03198316145b92915050565b60605f80546104449061150f565b80601f01602080910402602001604051908101604052809291908181526020018280546104709061150f565b80156104bb5780601f10610492576101008083540402835291602001916104bb565b820191905f5260205f20905b81548152906001019060200180831161049e57829003601f168201915b5050505050905090565b6104cd610b75565b6001600160a01b0382166105285760405162461bcd60e51b815260206004820152601a60248201527f43616e6e6f7420726577617264207a65726f206164647265737300000000000060448201526064015b60405180910390fd5b6040516340c10f1960e01b81526001600160a01b038381166004830152602482018390527f000000000000000000000000000000000000000000000000000000000000000016906340c10f19906044015f604051808303815f87803b15801561058f575f80fd5b505af11580156105a1573d5f803e3d5ffd5b505050505050565b5f6105b382610ba2565b505f828152600460205260409020546001600160a01b0316610430565b6105db828233610bda565b5050565b6001600160a01b03821661060857604051633250574960e11b81525f600482015260240161051f565b5f610614838333610be7565b9050836001600160a01b0316816001600160a01b031614610662576040516364283d7b60e01b81526001600160a01b038086166004830152602482018490528216604482015260640161051f565b50505050565b5f7f00000000000000000000000000000000000000000000000000000000000000006001600160a01b031663a2309ff86040518163ffffffff1660e01b8152600401602060405180830381865afa1580156106c5573d5f803e3d5ffd5b505050506040513d601f19601f820116820180604052508101906106e99190611547565b905090565b61070883838360405180602001604052805f815250610825565b505050565b5f60016007546106e99190611572565b6040516370a0823160e01b81526001600160a01b0382811660048301525f917f0000000000000000000000000000000000000000000000000000000000000000909116906370a0823190602401602060405180830381865afa158015610785573d5f803e3d5ffd5b505050506040513d601f19601f820116820180604052508101906104309190611547565b5f61043082610ba2565b5f6001600160a01b0382166107dd576040516322718ad960e21b81525f600482015260240161051f565b506001600160a01b03165f9081526003602052604090205490565b610800610b75565b6108095f610cd9565b565b6060600180546104449061150f565b6105db338383610d2a565b6108308484846105df565b6106623385858585610dc8565b5f818152600260205260409020546060906001600160a01b031661089a5760405162461bcd60e51b8152602060048201526014602482015273151bdad95b88191bd95cc81b9bdd08195e1a5cdd60621b604482015260640161051f565b5f82815260096020526040902080546108b29061150f565b80601f01602080910402602001604051908101604052809291908181526020018280546108de9061150f565b80156109295780601f1061090057610100808354040283529160200191610929565b820191905f5260205f20905b81548152906001019060200180831161090c57829003601f168201915b50505050509050919050565b5f818152600260205260408120546001600160a01b031661098f5760405162461bcd60e51b8152602060048201526014602482015273151bdad95b88191bd95cc81b9bdd08195e1a5cdd60621b604482015260640161051f565b505f908152600860205260409020546001600160a01b031690565b6001600160a01b039182165f90815260056020908152604080832093909416825291909152205460ff1690565b5f6001600160a01b038316610a2e5760405162461bcd60e51b815260206004820152601b60248201527f43616e6e6f74206d696e7420746f207a65726f20616464726573730000000000604482015260640161051f565b5f825111610a7e5760405162461bcd60e51b815260206004820152601960248201527f546f6b656e205552492063616e6e6f7420626520656d70747900000000000000604482015260640161051f565b600780545f9182610a8e83611585565b909155505f81815260086020908152604080832080546001600160a01b0319163317905560099091529020909150610ac684826115e2565b50610ad18482610eee565b610ae53368056bc75e2d6310000083610f07565b836001600160a01b0316336001600160a01b0316827fc8e51ba44d56c605bd20ad8cb591cfa3f9982310c747620ce20f77fd612bb39b86604051610b29919061128b565b60405180910390a49392505050565b610b40610b75565b6001600160a01b038116610b6957604051631e4fbdf760e01b81525f600482015260240161051f565b610b7281610cd9565b50565b6006546001600160a01b031633146108095760405163118cdaa760e01b815233600482015260240161051f565b5f818152600260205260408120546001600160a01b03168061043057604051637e27328960e01b81526004810184905260240161051f565b6107088383836001610fcd565b5f828152600260205260408120546001600160a01b0390811690831615610c1357610c138184866110d1565b6001600160a01b03811615610c4d57610c2e5f855f80610fcd565b6001600160a01b0381165f90815260036020526040902080545f190190555b6001600160a01b03851615610c7b576001600160a01b0385165f908152600360205260409020805460010190555b5f8481526002602052604080822080546001600160a01b0319166001600160a01b0389811691821790925591518793918516917fddf252ad1be2c89b69c2b068fc378daa952ba7f163c4a11628f55a4df523b3ef91a4949350505050565b600680546001600160a01b038381166001600160a01b0319831681179093556040519116919082907f8be0079c531659141344cd1fd0a4f28419497f9722a3daafe3b4186f6b6457e0905f90a35050565b6001600160a01b038216610d5c57604051630b61174360e31b81526001600160a01b038316600482015260240161051f565b6001600160a01b038381165f81815260056020908152604080832094871680845294825291829020805460ff191686151590811790915591519182527f17307eab39ab6107e8899845ad3d59bd9653f200f220920489ca2b5937696c31910160405180910390a3505050565b6001600160a01b0383163b15610ee757604051630a85bd0160e11b81526001600160a01b0384169063150b7a0290610e0a90889088908790879060040161169e565b6020604051808303815f875af1925050508015610e44575060408051601f3d908101601f19168201909252610e41918101906116da565b60015b610eab573d808015610e71576040519150601f19603f3d011682016040523d82523d5f602084013e610e76565b606091505b5080515f03610ea357604051633250574960e11b81526001600160a01b038516600482015260240161051f565b805181602001fd5b6001600160e01b03198116630a85bd0160e11b146105a157604051633250574960e11b81526001600160a01b038516600482015260240161051f565b5050505050565b6105db828260405180602001604052805f815250611135565b6040516340c10f1960e01b81526001600160a01b038481166004830152602482018490527f000000000000000000000000000000000000000000000000000000000000000016906340c10f19906044015f604051808303815f87803b158015610f6e575f80fd5b505af1158015610f80573d5f803e3d5ffd5b505060408051858152602081018590526001600160a01b03871693507f025e07f24d161088f2214e5aebe4556904e5db8d0ea9012d86c397ecaf8fdd7092500160405180910390a2505050565b8080610fe157506001600160a01b03821615155b156110a2575f610ff084610ba2565b90506001600160a01b0383161580159061101c5750826001600160a01b0316816001600160a01b031614155b801561102f575061102d81846109aa565b155b156110585760405163a9fbf51f60e01b81526001600160a01b038416600482015260240161051f565b81156110a05783856001600160a01b0316826001600160a01b03167f8c5be1e5ebec7d5bd14f71427d1e84f3dd0314c0f7b2291e5b200ac8c7c3b92560405160405180910390a45b505b50505f90815260046020526040902080546001600160a01b0319166001600160a01b0392909216919091179055565b6110dc83838361114c565b610708576001600160a01b03831661110a57604051637e27328960e01b81526004810182905260240161051f565b60405163177e802f60e01b81526001600160a01b03831660048201526024810182905260440161051f565b61113f83836111b0565b610708335f858585610dc8565b5f6001600160a01b038316158015906111a85750826001600160a01b0316846001600160a01b03161480611185575061118584846109aa565b806111a857505f828152600460205260409020546001600160a01b038481169116145b949350505050565b6001600160a01b0382166111d957604051633250574960e11b81525f600482015260240161051f565b5f6111e583835f610be7565b90506001600160a01b03811615610708576040516339e3563760e11b81525f600482015260240161051f565b6001600160e01b031981168114610b72575f80fd5b5f60208284031215611236575f80fd5b813561124181611211565b9392505050565b5f81518084525f5b8181101561126c57602081850181015186830182015201611250565b505f602082860101526020601f19601f83011685010191505092915050565b602081525f6112416020830184611248565b80356001600160a01b03811681146112b3575f80fd5b919050565b5f80604083850312156112c9575f80fd5b6112d28361129d565b946020939093013593505050565b5f602082840312156112f0575f80fd5b5035919050565b5f805f60608486031215611309575f80fd5b6113128461129d565b92506113206020850161129d565b9150604084013590509250925092565b5f60208284031215611340575f80fd5b6112418261129d565b5f806040838503121561135a575f80fd5b6113638361129d565b915060208301358015158114611377575f80fd5b809150509250929050565b634e487b7160e01b5f52604160045260245ffd5b5f67ffffffffffffffff808411156113b0576113b0611382565b604051601f8501601f19908116603f011681019082821181831017156113d8576113d8611382565b816040528093508581528686860111156113f0575f80fd5b858560208301375f602087830101525050509392505050565b5f805f806080858703121561141c575f80fd5b6114258561129d565b93506114336020860161129d565b925060408501359150606085013567ffffffffffffffff811115611455575f80fd5b8501601f81018713611465575f80fd5b61147487823560208401611396565b91505092959194509250565b5f8060408385031215611491575f80fd5b61149a8361129d565b91506114a86020840161129d565b90509250929050565b5f80604083850312156114c2575f80fd5b6114cb8361129d565b9150602083013567ffffffffffffffff8111156114e6575f80fd5b8301601f810185136114f6575f80fd5b61150585823560208401611396565b9150509250929050565b600181811c9082168061152357607f821691505b60208210810361154157634e487b7160e01b5f52602260045260245ffd5b50919050565b5f60208284031215611557575f80fd5b5051919050565b634e487b7160e01b5f52601160045260245ffd5b818103818111156104305761043061155e565b5f600182016115965761159661155e565b5060010190565b601f821115610708575f81815260208120601f850160051c810160208610156115c35750805b601f850160051c820191505b818110156105a1578281556001016115cf565b815167ffffffffffffffff8111156115fc576115fc611382565b6116108161160a845461150f565b8461159d565b602080601f831160018114611643575f841561162c5750858301515b5f19600386901b1c1916600185901b1785556105a1565b5f85815260208120601f198616915b8281101561167157888601518255948401946001909101908401611652565b508582101561168e57878501515f19600388901b60f8161c191681555b5050505050600190811b01905550565b6001600160a01b03858116825284166020820152604081018390526080606082018190525f906116d090830184611248565b9695505050505050565b5f602082840312156116ea575f80fd5b81516112418161121156fea26469706673582212209f69798b099488471ee47b7780001fe1ca20152c4e77dd04761104c132e7ebf864736f6c63430008140033608060405234801562000010575f80fd5b50336040518060400160405280600c81526020016b21b932b0ba37b92a37b5b2b760a11b8152506040518060400160405280600381526020016210d49560ea1b8152508160039081620000649190620001a7565b506004620000738282620001a7565b5050506001600160a01b038116620000a457604051631e4fbdf760e01b81525f600482015260240160405180910390fd5b620000af81620000b6565b506200026f565b600580546001600160a01b038381166001600160a01b0319831681179093556040519116919082907f8be0079c531659141344cd1fd0a4f28419497f9722a3daafe3b4186f6b6457e0905f90a35050565b634e487b7160e01b5f52604160045260245ffd5b600181811c908216806200013057607f821691505b6020821081036200014f57634e487b7160e01b5f52602260045260245ffd5b50919050565b601f821115620001a2575f81815260208120601f850160051c810160208610156200017d5750805b601f850160051c820191505b818110156200019e5782815560010162000189565b5050505b505050565b81516001600160401b03811115620001c357620001c362000107565b620001db81620001d484546200011b565b8462000155565b602080601f83116001811462000211575f8415620001f95750858301515b5f19600386901b1c1916600185901b1785556200019e565b5f85815260208120601f198616915b82811015620002415788860151825594840194600190910190840162000220565b50858210156200025f57878501515f19600388901b60f8161c191681555b5050505050600190811b01905550565b6109a9806200027d5f395ff3fe608060405234801561000f575f80fd5b50600436106100f0575f3560e01c806370a0823111610093578063a2309ff811610063578063a2309ff8146101e2578063a9059cbb146101ea578063dd62ed3e146101fd578063f2fde38b14610235575f80fd5b806370a082311461018f578063715018a6146101b75780638da5cb5b146101bf57806395d89b41146101da575f80fd5b806323b872dd116100ce57806323b872dd14610147578063313ce5671461015a57806332cb6b0c1461016957806340c10f191461017a575f80fd5b806306fdde03146100f4578063095ea7b31461011257806318160ddd14610135575b5f80fd5b6100fc610248565b6040516101099190610804565b60405180910390f35b61012561012036600461086a565b6102d8565b6040519015158152602001610109565b6002545b604051908152602001610109565b610125610155366004610892565b6102f1565b60405160128152602001610109565b61013969d3c21bcecceda100000081565b61018d61018836600461086a565b610314565b005b61013961019d3660046108cb565b6001600160a01b03165f9081526020819052604090205490565b61018d610403565b6005546040516001600160a01b039091168152602001610109565b6100fc610416565b600654610139565b6101256101f836600461086a565b610425565b61013961020b3660046108eb565b6001600160a01b039182165f90815260016020908152604080832093909416825291909152205490565b61018d6102433660046108cb565b610432565b6060600380546102579061091c565b80601f01602080910402602001604051908101604052809291908181526020018280546102839061091c565b80156102ce5780601f106102a5576101008083540402835291602001916102ce565b820191905f5260205f20905b8154815290600101906020018083116102b157829003601f168201915b5050505050905090565b5f336102e581858561046f565b60019150505b92915050565b5f336102fe858285610481565b6103098585856104fd565b506001949350505050565b61031c61055a565b6001600160a01b0382166103775760405162461bcd60e51b815260206004820152601b60248201527f43616e6e6f74206d696e7420746f207a65726f2061646472657373000000000060448201526064015b60405180910390fd5b69d3c21bcecceda1000000816006546103909190610954565b11156103de5760405162461bcd60e51b815260206004820152601760248201527f576f756c6420657863656564206d617820737570706c79000000000000000000604482015260640161036e565b8060065f8282546103ef9190610954565b909155506103ff90508282610587565b5050565b61040b61055a565b6104145f6105bb565b565b6060600480546102579061091c565b5f336102e58185856104fd565b61043a61055a565b6001600160a01b03811661046357604051631e4fbdf760e01b81525f600482015260240161036e565b61046c816105bb565b50565b61047c838383600161060c565b505050565b6001600160a01b038381165f908152600160209081526040808320938616835292905220545f198110156104f757818110156104e957604051637dc7a0d960e11b81526001600160a01b0384166004820152602481018290526044810183905260640161036e565b6104f784848484035f61060c565b50505050565b6001600160a01b03831661052657604051634b637e8f60e11b81525f600482015260240161036e565b6001600160a01b03821661054f5760405163ec442f0560e01b81525f600482015260240161036e565b61047c8383836106de565b6005546001600160a01b031633146104145760405163118cdaa760e01b815233600482015260240161036e565b6001600160a01b0382166105b05760405163ec442f0560e01b81525f600482015260240161036e565b6103ff5f83836106de565b600580546001600160a01b038381166001600160a01b0319831681179093556040519116919082907f8be0079c531659141344cd1fd0a4f28419497f9722a3daafe3b4186f6b6457e0905f90a35050565b6001600160a01b0384166106355760405163e602df0560e01b81525f600482015260240161036e565b6001600160a01b03831661065e57604051634a1406b160e11b81525f600482015260240161036e565b6001600160a01b038085165f90815260016020908152604080832093871683529290522082905580156104f757826001600160a01b0316846001600160a01b03167f8c5be1e5ebec7d5bd14f71427d1e84f3dd0314c0f7b2291e5b200ac8c7c3b925846040516106d091815260200190565b60405180910390a350505050565b6001600160a01b038316610708578060025f8282546106fd9190610954565b909155506107789050565b6001600160a01b0383165f908152602081905260409020548181101561075a5760405163391434e360e21b81526001600160a01b0385166004820152602481018290526044810183905260640161036e565b6001600160a01b0384165f9081526020819052604090209082900390555b6001600160a01b038216610794576002805482900390556107b2565b6001600160a01b0382165f9081526020819052604090208054820190555b816001600160a01b0316836001600160a01b03167fddf252ad1be2c89b69c2b068fc378daa952ba7f163c4a11628f55a4df523b3ef836040516107f791815260200190565b60405180910390a3505050565b5f6020808352835180828501525f5b8181101561082f57858101830151858201604001528201610813565b505f604082860101526040601f19601f8301168501019250505092915050565b80356001600160a01b0381168114610865575f80fd5b919050565b5f806040838503121561087b575f80fd5b6108848361084f565b946020939093013593505050565b5f805f606084860312156108a4575f80fd5b6108ad8461084f565b92506108bb6020850161084f565b9150604084013590509250925092565b5f602082840312156108db575f80fd5b6108e48261084f565b9392505050565b5f80604083850312156108fc575f80fd5b6109058361084f565b91506109136020840161084f565b90509250929050565b600181811c9082168061093057607f821691505b60208210810361094e57634e487b7160e01b5f52602260045260245ffd5b50919050565b808201808211156102eb57634e487b7160e01b5f52601160045260245ffdfea26469706673582212205ac5ad7dadc9210f4ebd5fedc11612fa116ddd0ad40e6012346a27d3ec676d3564736f6c63430008140033","linkReferences":{}},"methodIdentifiers":{"CREATOR_REWARD()":"40c900b6","approve(address,uint256)":"095ea7b3","balanceOf(address)":"70a08231","creatorToken()":"483a5f14","getApproved(uint256)":"081812fc","getCreator(uint256)":"d48e638a","getCreatorTokenAddress()":"41e74b48","getCreatorTokenBalance(address)":"6039fe62","getNextTokenId()":"caa0f92a","getTotalCreatorTokens()":"3b99eddc","isApprovedForAll(address,address)":"e985e9c5","mintNFT(address,string)":"eacabe14","name()":"06fdde03","nftCreators(uint256)":"0fe00cbc","owner()":"8da5cb5b","ownerOf(uint256)":"6352211e","renounceOwnership()":"715018a6","rewardCreator(address,uint256)":"0773fdb9","safeTransferFrom(address,address,uint256)":"42842e0e","safeTransferFrom(address,address,uint256,bytes)":"b88d4fde","setApprovalForAll(address,bool)":"a22cb465","supportsInterface(bytes4)":"01ffc9a7","symbol()":"95d89b41","tokenURI(uint256)":"c87b56dd","totalNFTsMinted()":"4eb7e95f","transferFrom(address,address,uint256)":"23b872dd","transferOwnership(address)":"f2fde38b"},"id":37}